{
  "contractName": "AlbaChain",
  "abi": [
    {
      "constant": false,
      "inputs": [],
      "name": "renounceOwnership",
      "outputs": [],
      "payable": false,
      "stateMutability": "nonpayable",
      "type": "function"
    },
    {
      "constant": true,
      "inputs": [],
      "name": "owner",
      "outputs": [
        {
          "name": "",
          "type": "address"
        }
      ],
      "payable": false,
      "stateMutability": "view",
      "type": "function"
    },
    {
      "constant": true,
      "inputs": [],
      "name": "isOwner",
      "outputs": [
        {
          "name": "",
          "type": "bool"
        }
      ],
      "payable": false,
      "stateMutability": "view",
      "type": "function"
    },
    {
      "constant": false,
      "inputs": [
        {
          "name": "newOwner",
          "type": "address"
        }
      ],
      "name": "transferOwnership",
      "outputs": [],
      "payable": false,
      "stateMutability": "nonpayable",
      "type": "function"
    },
    {
      "anonymous": false,
      "inputs": [
        {
          "indexed": true,
          "name": "previousOwner",
          "type": "address"
        },
        {
          "indexed": true,
          "name": "newOwner",
          "type": "address"
        }
      ],
      "name": "OwnershipTransferred",
      "type": "event"
    },
    {
      "constant": false,
      "inputs": [
        {
          "name": "_employerAddress",
          "type": "address"
        },
        {
          "name": "_employeeAddress",
          "type": "address"
        },
        {
          "name": "startDate",
          "type": "uint256"
        }
      ],
      "name": "setRecord",
      "outputs": [],
      "payable": false,
      "stateMutability": "nonpayable",
      "type": "function"
    },
    {
      "constant": true,
      "inputs": [
        {
          "name": "_employeeAddress",
          "type": "address"
        }
      ],
      "name": "getEmployeeRecord",
      "outputs": [
        {
          "name": "",
          "type": "address[]"
        },
        {
          "name": "",
          "type": "uint256[]"
        }
      ],
      "payable": false,
      "stateMutability": "view",
      "type": "function"
    },
    {
      "constant": true,
      "inputs": [
        {
          "name": "_employerAddress",
          "type": "address"
        }
      ],
      "name": "getEmployerRecord",
      "outputs": [
        {
          "name": "",
          "type": "address[]"
        },
        {
          "name": "",
          "type": "uint256[]"
        }
      ],
      "payable": false,
      "stateMutability": "view",
      "type": "function"
    }
  ],
  "bytecode": "0x6080604052600061001d6100c0640100000000026401000000009004565b9050806000806101000a81548173ffffffffffffffffffffffffffffffffffffffff021916908373ffffffffffffffffffffffffffffffffffffffff1602179055508073ffffffffffffffffffffffffffffffffffffffff16600073ffffffffffffffffffffffffffffffffffffffff167f8be0079c531659141344cd1fd0a4f28419497f9722a3daafe3b4186f6b6457e060405160405180910390a3506100c8565b600033905090565b610ee7806100d76000396000f300608060405260043610610083576000357c0100000000000000000000000000000000000000000000000000000000900463ffffffff16806310ec92ca14610088578063715018a6146101685780638da5cb5b1461017f5780638f32d59b146101d6578063c60e28c014610205578063f2fde38b14610272578063fda7b505146102b5575b600080fd5b34801561009457600080fd5b506100c9600480360381019080803573ffffffffffffffffffffffffffffffffffffffff169060200190929190505050610395565b604051808060200180602001838103835285818151815260200191508051906020019060200280838360005b838110156101105780820151818401526020810190506100f5565b50505050905001838103825284818151815260200191508051906020019060200280838360005b83811015610152578082015181840152602081019050610137565b5050505090500194505050505060405180910390f35b34801561017457600080fd5b5061017d610623565b005b34801561018b57600080fd5b5061019461075e565b604051808273ffffffffffffffffffffffffffffffffffffffff1673ffffffffffffffffffffffffffffffffffffffff16815260200191505060405180910390f35b3480156101e257600080fd5b506101eb610787565b604051808215151515815260200191505060405180910390f35b34801561021157600080fd5b50610270600480360381019080803573ffffffffffffffffffffffffffffffffffffffff169060200190929190803573ffffffffffffffffffffffffffffffffffffffff169060200190929190803590602001909291905050506107e5565b005b34801561027e57600080fd5b506102b3600480360381019080803573ffffffffffffffffffffffffffffffffffffffff169060200190929190505050610a14565b005b3480156102c157600080fd5b506102f6600480360381019080803573ffffffffffffffffffffffffffffffffffffffff169060200190929190505050610a9c565b604051808060200180602001838103835285818151815260200191508051906020019060200280838360005b8381101561033d578082015181840152602081019050610322565b50505050905001838103825284818151815260200191508051906020019060200280838360005b8381101561037f578082015181840152602081019050610364565b5050505090500194505050505060405180910390f35b6060806060806000600260008773ffffffffffffffffffffffffffffffffffffffff1673ffffffffffffffffffffffffffffffffffffffff1681526020019081526020016000205460405190808252806020026020018201604052801561040b5781602001602082028038833980820191505090505b509250600260008773ffffffffffffffffffffffffffffffffffffffff1673ffffffffffffffffffffffffffffffffffffffff1681526020019081526020016000205460405190808252806020026020018201604052801561047c5781602001602082028038833980820191505090505b509150600090505b600260008773ffffffffffffffffffffffffffffffffffffffff1673ffffffffffffffffffffffffffffffffffffffff16815260200190815260200160002054811015610615578573ffffffffffffffffffffffffffffffffffffffff166003828154811015156104f157fe5b906000526020600020906003020160000160009054906101000a900473ffffffffffffffffffffffffffffffffffffffff1673ffffffffffffffffffffffffffffffffffffffff1614156106085760038181548110151561054e57fe5b906000526020600020906003020160010160009054906101000a900473ffffffffffffffffffffffffffffffffffffffff16838281518110151561058e57fe5b9060200190602002019073ffffffffffffffffffffffffffffffffffffffff16908173ffffffffffffffffffffffffffffffffffffffff16815250506003818154811015156105d957fe5b90600052602060002090600302016002015482828151811015156105f957fe5b90602001906020020181815250505b8080600101915050610484565b828294509450505050915091565b61062b610787565b151561069f576040517f08c379a00000000000000000000000000000000000000000000000000000000081526004018080602001828103825260208152602001807f4f776e61626c653a2063616c6c6572206973206e6f7420746865206f776e657281525060200191505060405180910390fd5b600073ffffffffffffffffffffffffffffffffffffffff166000809054906101000a900473ffffffffffffffffffffffffffffffffffffffff1673ffffffffffffffffffffffffffffffffffffffff167f8be0079c531659141344cd1fd0a4f28419497f9722a3daafe3b4186f6b6457e060405160405180910390a360008060006101000a81548173ffffffffffffffffffffffffffffffffffffffff021916908373ffffffffffffffffffffffffffffffffffffffff160217905550565b60008060009054906101000a900473ffffffffffffffffffffffffffffffffffffffff16905090565b60008060009054906101000a900473ffffffffffffffffffffffffffffffffffffffff1673ffffffffffffffffffffffffffffffffffffffff166107c9610d2a565b73ffffffffffffffffffffffffffffffffffffffff1614905090565b6107ed610787565b1515610861576040517f08c379a00000000000000000000000000000000000000000000000000000000081526004018080602001828103825260208152602001807f4f776e61626c653a2063616c6c6572206973206e6f7420746865206f776e657281525060200191505060405180910390fd5b60036060604051908101604052808573ffffffffffffffffffffffffffffffffffffffff1681526020018473ffffffffffffffffffffffffffffffffffffffff168152602001838152509080600181540180825580915050906001820390600052602060002090600302016000909192909190915060008201518160000160006101000a81548173ffffffffffffffffffffffffffffffffffffffff021916908373ffffffffffffffffffffffffffffffffffffffff16021790555060208201518160010160006101000a81548173ffffffffffffffffffffffffffffffffffffffff021916908373ffffffffffffffffffffffffffffffffffffffff16021790555060408201518160020155505050600260008473ffffffffffffffffffffffffffffffffffffffff1673ffffffffffffffffffffffffffffffffffffffff16815260200190815260200160002060008154809291906001019190505550600160008373ffffffffffffffffffffffffffffffffffffffff1673ffffffffffffffffffffffffffffffffffffffff16815260200190815260200160002060008154809291906001019190505550505050565b610a1c610787565b1515610a90576040517f08c379a00000000000000000000000000000000000000000000000000000000081526004018080602001828103825260208152602001807f4f776e61626c653a2063616c6c6572206973206e6f7420746865206f776e657281525060200191505060405180910390fd5b610a9981610d32565b50565b6060806060806000600160008773ffffffffffffffffffffffffffffffffffffffff1673ffffffffffffffffffffffffffffffffffffffff16815260200190815260200160002054604051908082528060200260200182016040528015610b125781602001602082028038833980820191505090505b509250600160008773ffffffffffffffffffffffffffffffffffffffff1673ffffffffffffffffffffffffffffffffffffffff16815260200190815260200160002054604051908082528060200260200182016040528015610b835781602001602082028038833980820191505090505b509150600090505b600160008773ffffffffffffffffffffffffffffffffffffffff1673ffffffffffffffffffffffffffffffffffffffff16815260200190815260200160002054811015610d1c578573ffffffffffffffffffffffffffffffffffffffff16600382815481101515610bf857fe5b906000526020600020906003020160010160009054906101000a900473ffffffffffffffffffffffffffffffffffffffff1673ffffffffffffffffffffffffffffffffffffffff161415610d0f57600381815481101515610c5557fe5b906000526020600020906003020160000160009054906101000a900473ffffffffffffffffffffffffffffffffffffffff168382815181101515610c9557fe5b9060200190602002019073ffffffffffffffffffffffffffffffffffffffff16908173ffffffffffffffffffffffffffffffffffffffff1681525050600381815481101515610ce057fe5b9060005260206000209060030201600201548282815181101515610d0057fe5b90602001906020020181815250505b8080600101915050610b8b565b828294509450505050915091565b600033905090565b600073ffffffffffffffffffffffffffffffffffffffff168173ffffffffffffffffffffffffffffffffffffffff1614151515610dfd576040517f08c379a00000000000000000000000000000000000000000000000000000000081526004018080602001828103825260268152602001807f4f776e61626c653a206e6577206f776e657220697320746865207a65726f206181526020017f646472657373000000000000000000000000000000000000000000000000000081525060400191505060405180910390fd5b8073ffffffffffffffffffffffffffffffffffffffff166000809054906101000a900473ffffffffffffffffffffffffffffffffffffffff1673ffffffffffffffffffffffffffffffffffffffff167f8be0079c531659141344cd1fd0a4f28419497f9722a3daafe3b4186f6b6457e060405160405180910390a3806000806101000a81548173ffffffffffffffffffffffffffffffffffffffff021916908373ffffffffffffffffffffffffffffffffffffffff160217905550505600a165627a7a723058205293c706c3c2c428a18a32d265383599e247e60b8428ded4b2db1018345928200029",
  "source": "pragma solidity >=0.4.0 <=0.6.0;\r\n\r\nimport \"./Ownable.sol\";\r\n\r\ncontract AlbaChain is Ownable{\r\n    \r\n    struct Recode{\r\n        address employerAddress;\r\n        address employeeAddress;\r\n        uint256 startDate;\r\n    }\r\n    \r\n    mapping (address=>uint256) employeeCounter;\r\n    mapping (address=>uint256) employerCounter;\r\n    \r\n    Recode[] private recodes;\r\n    \r\n    function setRecord(address _employerAddress, address _employeeAddress, uint256 startDate) public onlyOwner{\r\n        recodes.push(Recode(_employerAddress,_employeeAddress,startDate));\r\n        employerCounter[_employerAddress]++;\r\n        employeeCounter[_employeeAddress]++;\r\n    }\r\n    \r\n    function getEmployeeRecord(address _employeeAddress) public view returns(address[] memory, uint256[] memory){\r\n        address[] memory term1 = new address[](employeeCounter[_employeeAddress]);\r\n        uint256[] memory term2 = new uint256[](employeeCounter[_employeeAddress]);\r\n        \r\n        for(uint i =0;i<employeeCounter[_employeeAddress];i++){\r\n            if(recodes[i].employeeAddress == _employeeAddress){\r\n                term1[i] = recodes[i].employerAddress;\r\n                term2[i] = recodes[i].startDate;\r\n            }\r\n        }\r\n        \r\n        return (term1,term2);\r\n    }\r\n    \r\n    function getEmployerRecord(address _employerAddress) public view returns(address[] memory, uint256[] memory){\r\n        address[] memory term1 = new address[](employerCounter[_employerAddress]);\r\n        uint256[] memory term2 = new uint256[](employerCounter[_employerAddress]);\r\n        \r\n        for(uint i =0;i<employerCounter[_employerAddress];i++){\r\n            if(recodes[i].employerAddress == _employerAddress){\r\n                term1[i] = recodes[i].employeeAddress;\r\n                term2[i] = recodes[i].startDate;\r\n            }\r\n        }\r\n        \r\n        return (term1,term2);\r\n    }\r\n}\r\n",
  "sourcePath": "C:\\Users\\worud\\Desktop\\ALBACHAIN\\BlockChain\\contracts\\AlbaChain.sol",
  "compiler": {
    "name": "solc",
    "version": "0.4.25+commit.59dbf8f1.Emscripten.clang"
  },
  "schemaVersion": "2.0.2",
  "updatedAt": "2019-10-20T14:33:55.627Z"
}