{
  "contractName": "AlbaChain",
  "abi": [
    {
      "constant": false,
      "inputs": [],
      "name": "renounceOwnership",
      "outputs": [],
      "payable": false,
      "stateMutability": "nonpayable",
      "type": "function"
    },
    {
      "constant": true,
      "inputs": [],
      "name": "owner",
      "outputs": [
        {
          "name": "",
          "type": "address"
        }
      ],
      "payable": false,
      "stateMutability": "view",
      "type": "function"
    },
    {
      "constant": true,
      "inputs": [],
      "name": "isOwner",
      "outputs": [
        {
          "name": "",
          "type": "bool"
        }
      ],
      "payable": false,
      "stateMutability": "view",
      "type": "function"
    },
    {
      "constant": false,
      "inputs": [
        {
          "name": "newOwner",
          "type": "address"
        }
      ],
      "name": "transferOwnership",
      "outputs": [],
      "payable": false,
      "stateMutability": "nonpayable",
      "type": "function"
    },
    {
      "payable": true,
      "stateMutability": "payable",
      "type": "fallback"
    },
    {
      "anonymous": false,
      "inputs": [
        {
          "indexed": true,
          "name": "previousOwner",
          "type": "address"
        },
        {
          "indexed": true,
          "name": "newOwner",
          "type": "address"
        }
      ],
      "name": "OwnershipTransferred",
      "type": "event"
    },
    {
      "constant": false,
      "inputs": [
        {
          "name": "_employer",
          "type": "uint256"
        },
        {
          "name": "_employee",
          "type": "uint256"
        },
        {
          "name": "_startDate",
          "type": "uint256"
        },
        {
          "name": "_endDate",
          "type": "uint256"
        },
        {
          "name": "_pay",
          "type": "uint32"
        }
      ],
      "name": "setRecord",
      "outputs": [],
      "payable": false,
      "stateMutability": "nonpayable",
      "type": "function"
    },
    {
      "constant": true,
      "inputs": [
        {
          "name": "user",
          "type": "uint256"
        }
      ],
      "name": "getCounter",
      "outputs": [
        {
          "name": "",
          "type": "uint256"
        }
      ],
      "payable": false,
      "stateMutability": "view",
      "type": "function"
    },
    {
      "constant": true,
      "inputs": [],
      "name": "getAllRecord",
      "outputs": [
        {
          "name": "",
          "type": "uint32[]"
        },
        {
          "name": "",
          "type": "uint256[]"
        },
        {
          "name": "",
          "type": "uint256[]"
        },
        {
          "name": "",
          "type": "uint256[]"
        },
        {
          "name": "",
          "type": "uint256[]"
        }
      ],
      "payable": false,
      "stateMutability": "view",
      "type": "function"
    },
    {
      "constant": true,
      "inputs": [
        {
          "name": "_employee",
          "type": "uint256"
        }
      ],
      "name": "getEmployeeRecord",
      "outputs": [
        {
          "name": "",
          "type": "uint32[]"
        },
        {
          "name": "",
          "type": "uint256[]"
        },
        {
          "name": "",
          "type": "uint256[]"
        },
        {
          "name": "",
          "type": "uint256[]"
        }
      ],
      "payable": false,
      "stateMutability": "view",
      "type": "function"
    },
    {
      "constant": true,
      "inputs": [
        {
          "name": "_employer",
          "type": "uint256"
        }
      ],
      "name": "getEmployerRecord",
      "outputs": [
        {
          "name": "",
          "type": "uint32[]"
        },
        {
          "name": "",
          "type": "uint256[]"
        },
        {
          "name": "",
          "type": "uint256[]"
        },
        {
          "name": "",
          "type": "uint256[]"
        }
      ],
      "payable": false,
      "stateMutability": "view",
      "type": "function"
    }
  ],
  "bytecode": "0x6080604052600061001d6100c0640100000000026401000000009004565b9050806000806101000a81548173ffffffffffffffffffffffffffffffffffffffff021916908373ffffffffffffffffffffffffffffffffffffffff1602179055508073ffffffffffffffffffffffffffffffffffffffff16600073ffffffffffffffffffffffffffffffffffffffff167f8be0079c531659141344cd1fd0a4f28419497f9722a3daafe3b4186f6b6457e060405160405180910390a3506100c8565b600033905090565b6113ab806100d76000396000f300608060405260043610610099576000357c0100000000000000000000000000000000000000000000000000000000900463ffffffff168063214aed451461009e5780636dc955be146100df578063715018a61461013a5780638287c5f0146101515780638da5cb5b146102ab5780638f32d59b14610302578063d5a9f00314610331578063e99bd88f146104bd578063f2fde38b14610617575b600080fd5b3480156100aa57600080fd5b506100c96004803603810190808035906020019092919050505061065a565b6040518082815260200191505060405180910390f35b3480156100eb57600080fd5b5061013860048036038101908080359060200190929190803590602001909291908035906020019092919080359060200190929190803563ffffffff16906020019092919050505061067c565b005b34801561014657600080fd5b5061014f6107f2565b005b34801561015d57600080fd5b5061017c6004803603810190808035906020019092919050505061092d565b6040518080602001806020018060200180602001858103855289818151815260200191508051906020019060200280838360005b838110156101cb5780820151818401526020810190506101b0565b50505050905001858103845288818151815260200191508051906020019060200280838360005b8381101561020d5780820151818401526020810190506101f2565b50505050905001858103835287818151815260200191508051906020019060200280838360005b8381101561024f578082015181840152602081019050610234565b50505050905001858103825286818151815260200191508051906020019060200280838360005b83811015610291578082015181840152602081019050610276565b505050509050019850505050505050505060405180910390f35b3480156102b757600080fd5b506102c0610b89565b604051808273ffffffffffffffffffffffffffffffffffffffff1673ffffffffffffffffffffffffffffffffffffffff16815260200191505060405180910390f35b34801561030e57600080fd5b50610317610bb2565b604051808215151515815260200191505060405180910390f35b34801561033d57600080fd5b50610346610c10565b60405180806020018060200180602001806020018060200186810386528b818151815260200191508051906020019060200280838360005b8381101561039957808201518184015260208101905061037e565b5050505090500186810385528a818151815260200191508051906020019060200280838360005b838110156103db5780820151818401526020810190506103c0565b50505050905001868103845289818151815260200191508051906020019060200280838360005b8381101561041d578082015181840152602081019050610402565b50505050905001868103835288818151815260200191508051906020019060200280838360005b8381101561045f578082015181840152602081019050610444565b50505050905001868103825287818151815260200191508051906020019060200280838360005b838110156104a1578082015181840152602081019050610486565b505050509050019a505050505050505050505060405180910390f35b3480156104c957600080fd5b506104e860048036038101908080359060200190929190505050610ebe565b6040518080602001806020018060200180602001858103855289818151815260200191508051906020019060200280838360005b8381101561053757808201518184015260208101905061051c565b50505050905001858103845288818151815260200191508051906020019060200280838360005b8381101561057957808201518184015260208101905061055e565b50505050905001858103835287818151815260200191508051906020019060200280838360005b838110156105bb5780820151818401526020810190506105a0565b50505050905001858103825286818151815260200191508051906020019060200280838360005b838110156105fd5780820151818401526020810190506105e2565b505050509050019850505050505050505060405180910390f35b34801561062357600080fd5b50610658600480360381019080803573ffffffffffffffffffffffffffffffffffffffff169060200190929190505050611166565b005b6000806001600084815260200190815260200160002054905080915050919050565b610684610bb2565b15156106f8576040517f08c379a00000000000000000000000000000000000000000000000000000000081526004018080602001828103825260208152602001807f4f776e61626c653a2063616c6c6572206973206e6f7420746865206f776e657281525060200191505060405180910390fd5b600360a0604051908101604052808363ffffffff168152602001878152602001868152602001858152602001848152509080600181540180825580915050906001820390600052602060002090600502016000909192909190915060008201518160000160006101000a81548163ffffffff021916908363ffffffff16021790555060208201518160010155604082015181600201556060820151816003015560808201518160040155505050600260008681526020019081526020016000206000815480929190600101919050555060016000858152602001908152602001600020600081548092919060010191905055505050505050565b6107fa610bb2565b151561086e576040517f08c379a00000000000000000000000000000000000000000000000000000000081526004018080602001828103825260208152602001807f4f776e61626c653a2063616c6c6572206973206e6f7420746865206f776e657281525060200191505060405180910390fd5b600073ffffffffffffffffffffffffffffffffffffffff166000809054906101000a900473ffffffffffffffffffffffffffffffffffffffff1673ffffffffffffffffffffffffffffffffffffffff167f8be0079c531659141344cd1fd0a4f28419497f9722a3daafe3b4186f6b6457e060405160405180910390a360008060006101000a81548173ffffffffffffffffffffffffffffffffffffffff021916908373ffffffffffffffffffffffffffffffffffffffff160217905550565b606080606080606080606080600060038054905060405190808252806020026020018201604052801561096f5781602001602082028038833980820191505090505b5094506003805490506040519080825280602002602001820160405280156109a65781602001602082028038833980820191505090505b5093506003805490506040519080825280602002602001820160405280156109dd5781602001602082028038833980820191505090505b509250600380549050604051908082528060200260200182016040528015610a145781602001602082028038833980820191505090505b509150600090505b600380549050811015610b715789600382815481101515610a3957fe5b9060005260206000209060050201600101541415610b6457600381815481101515610a6057fe5b906000526020600020906005020160000160009054906101000a900463ffffffff168582815181101515610a9057fe5b9060200190602002019063ffffffff16908163ffffffff1681525050600381815481101515610abb57fe5b9060005260206000209060050201600201548482815181101515610adb57fe5b9060200190602002018181525050600381815481101515610af857fe5b9060005260206000209060050201600301548382815181101515610b1857fe5b9060200190602002018181525050600381815481101515610b3557fe5b9060005260206000209060050201600401548282815181101515610b5557fe5b90602001906020020181815250505b8080600101915050610a1c565b84848484985098509850985050505050509193509193565b60008060009054906101000a900473ffffffffffffffffffffffffffffffffffffffff16905090565b60008060009054906101000a900473ffffffffffffffffffffffffffffffffffffffff1673ffffffffffffffffffffffffffffffffffffffff16610bf46111ee565b73ffffffffffffffffffffffffffffffffffffffff1614905090565b6060806060806060806060806060806000600380549050604051908082528060200260200182016040528015610c555781602001602082028038833980820191505090505b509550600380549050604051908082528060200260200182016040528015610c8c5781602001602082028038833980820191505090505b509450600380549050604051908082528060200260200182016040528015610cc35781602001602082028038833980820191505090505b509350600380549050604051908082528060200260200182016040528015610cfa5781602001602082028038833980820191505090505b509250600380549050604051908082528060200260200182016040528015610d315781602001602082028038833980820191505090505b509150600090505b600380549050811015610ea257600381815481101515610d5557fe5b906000526020600020906005020160000160009054906101000a900463ffffffff168682815181101515610d8557fe5b9060200190602002019063ffffffff16908163ffffffff1681525050600381815481101515610db057fe5b9060005260206000209060050201600101548582815181101515610dd057fe5b9060200190602002018181525050600381815481101515610ded57fe5b9060005260206000209060050201600301548482815181101515610e0d57fe5b9060200190602002018181525050600381815481101515610e2a57fe5b9060005260206000209060050201600401548382815181101515610e4a57fe5b9060200190602002018181525050600381815481101515610e6757fe5b9060005260206000209060050201600201548282815181101515610e8757fe5b90602001906020020181815250508080600101915050610d39565b85858585859a509a509a509a509a505050505050509091929394565b606080606080606080606080600060016000600380549050815260200190815260200160002054604051908082528060200260200182016040528015610f135781602001602082028038833980820191505090505b50945060016000600380549050815260200190815260200160002054604051908082528060200260200182016040528015610f5d5781602001602082028038833980820191505090505b50935060016000600380549050815260200190815260200160002054604051908082528060200260200182016040528015610fa75781602001602082028038833980820191505090505b50925060016000600380549050815260200190815260200160002054604051908082528060200260200182016040528015610ff15781602001602082028038833980820191505090505b509150600090505b60038054905081101561114e578960038281548110151561101657fe5b90600052602060002090600502016002015414156111415760038181548110151561103d57fe5b906000526020600020906005020160000160009054906101000a900463ffffffff16858281518110151561106d57fe5b9060200190602002019063ffffffff16908163ffffffff168152505060038181548110151561109857fe5b90600052602060002090600502016001015484828151811015156110b857fe5b90602001906020020181815250506003818154811015156110d557fe5b90600052602060002090600502016003015483828151811015156110f557fe5b906020019060200201818152505060038181548110151561111257fe5b906000526020600020906005020160040154828281518110151561113257fe5b90602001906020020181815250505b8080600101915050610ff9565b84848484985098509850985050505050509193509193565b61116e610bb2565b15156111e2576040517f08c379a00000000000000000000000000000000000000000000000000000000081526004018080602001828103825260208152602001807f4f776e61626c653a2063616c6c6572206973206e6f7420746865206f776e657281525060200191505060405180910390fd5b6111eb816111f6565b50565b600033905090565b600073ffffffffffffffffffffffffffffffffffffffff168173ffffffffffffffffffffffffffffffffffffffff16141515156112c1576040517f08c379a00000000000000000000000000000000000000000000000000000000081526004018080602001828103825260268152602001807f4f776e61626c653a206e6577206f776e657220697320746865207a65726f206181526020017f646472657373000000000000000000000000000000000000000000000000000081525060400191505060405180910390fd5b8073ffffffffffffffffffffffffffffffffffffffff166000809054906101000a900473ffffffffffffffffffffffffffffffffffffffff1673ffffffffffffffffffffffffffffffffffffffff167f8be0079c531659141344cd1fd0a4f28419497f9722a3daafe3b4186f6b6457e060405160405180910390a3806000806101000a81548173ffffffffffffffffffffffffffffffffffffffff021916908373ffffffffffffffffffffffffffffffffffffffff160217905550505600a165627a7a7230582035d6c7f3615da78bcf152a07a8218b74765d314b5672e4853ccdf03d65e2f53c0029",
  "source": "pragma solidity  >=0.4.24 <=0.5.6;\r\n\r\nimport \"./Ownable.sol\";\r\n\r\ncontract AlbaChain is Ownable{\r\n    \r\n    struct Record{\r\n        uint32 pay;\r\n        uint256 employer;\r\n        uint256 employee;\r\n        uint256 startDate;\r\n        uint256 endDate;\r\n    }\r\n    \r\n    mapping (uint256 => uint256) employeeCounter;\r\n    mapping (uint256 => uint256) employerCounter;\r\n    \r\n    Record[] private records;\r\n    \r\n    function setRecord(uint256 _employer, uint256 _employee, uint256 _startDate, uint256 _endDate, uint32 _pay) public onlyOwner{\r\n        records.push(Record(_pay,_employer,_employee,_startDate,_endDate));\r\n        employerCounter[_employer]++;\r\n        employeeCounter[_employee]++;\r\n    }\r\n    \r\n    function getCounter(uint256 user) view public returns(uint256){\r\n        uint256 a = employeeCounter[user];\r\n        return (a);\r\n    }\r\n    \r\n    function getAllRecord() public view returns(uint32[] memory,uint256[] memory, uint256[] memory,uint256[] memory,uint256[] memory){\r\n        uint32[] memory term1 = new uint32[](records.length);\r\n        uint256[] memory term2 = new uint256[](records.length);\r\n        uint256[] memory term3 = new uint256[](records.length);\r\n        uint256[] memory term4 = new uint256[](records.length);\r\n        uint256[] memory term5 = new uint256[](records.length);\r\n        \r\n        for(uint i =0;i<records.length;i++){\r\n                term1[i] = records[i].pay;\r\n                term2[i] = records[i].employer;\r\n                term3[i] = records[i].startDate;\r\n                term4[i] = records[i].endDate;\r\n                term5[i] = records[i].employee;\r\n        }\r\n        return (term1,term2,term3,term4,term5);\r\n    }\r\n    \r\n    function getEmployeeRecord(uint256 _employee) public view returns(uint32[] memory,uint256[] memory, uint256[] memory,uint256[] memory){\r\n        uint32[] memory term1 = new uint32[](employeeCounter[records.length]);\r\n        uint256[] memory term2 = new uint256[](employeeCounter[records.length]);\r\n        uint256[] memory term3 = new uint256[](employeeCounter[records.length]);\r\n        uint256[] memory term4 = new uint256[](employeeCounter[records.length]);\r\n        \r\n        for(uint i =0;i<records.length;i++){\r\n            if(records[i].employee == _employee){\r\n                term1[i] = records[i].pay;\r\n                term2[i] = records[i].employer;\r\n                term3[i] = records[i].startDate;\r\n                term4[i] = records[i].endDate;\r\n            }\r\n        }\r\n        \r\n        return (term1,term2,term3,term4);\r\n    }\r\n    \r\n    function getEmployerRecord(uint256 _employer) public view returns(uint32[] memory, uint256[] memory, uint256[] memory, uint256[] memory){\r\n        uint32[] memory term1 = new uint32[](records.length);\r\n        uint256[] memory term2 = new uint256[](records.length);\r\n        uint256[] memory term3 = new uint256[](records.length);\r\n        uint256[] memory term4 = new uint256[](records.length);\r\n        \r\n        for(uint i =0;i<records.length;i++){\r\n            if(records[i].employer == _employer){\r\n                term1[i] = records[i].pay;\r\n                term2[i] = records[i].employee;\r\n                term3[i] = records[i].startDate;\r\n                term4[i] = records[i].endDate;\r\n            }\r\n        }\r\n        \r\n        return (term1,term2,term3,term4);\r\n    }\r\n    \r\n// ---------\r\n// Dont accept ETH;\r\n// ---------\r\n    function () external payable { \r\n        revert();\r\n    }\r\n}\r\n",
  "sourcePath": "C:\\Users\\worud\\Desktop\\ALBACHAIN\\BlockChain\\contracts\\AlbaChain.sol",
  "compiler": {
    "name": "solc",
    "version": "0.4.25+commit.59dbf8f1.Emscripten.clang"
  },
  "schemaVersion": "2.0.2",
  "updatedAt": "2019-11-11T04:36:11.543Z"
}