{
  "contractName": "AlbaChain",
  "abi": [
    {
      "constant": false,
      "inputs": [],
      "name": "renounceOwnership",
      "outputs": [],
      "payable": false,
      "stateMutability": "nonpayable",
      "type": "function"
    },
    {
      "constant": true,
      "inputs": [],
      "name": "owner",
      "outputs": [
        {
          "name": "",
          "type": "address"
        }
      ],
      "payable": false,
      "stateMutability": "view",
      "type": "function"
    },
    {
      "constant": true,
      "inputs": [],
      "name": "isOwner",
      "outputs": [
        {
          "name": "",
          "type": "bool"
        }
      ],
      "payable": false,
      "stateMutability": "view",
      "type": "function"
    },
    {
      "constant": false,
      "inputs": [
        {
          "name": "newOwner",
          "type": "address"
        }
      ],
      "name": "transferOwnership",
      "outputs": [],
      "payable": false,
      "stateMutability": "nonpayable",
      "type": "function"
    },
    {
      "payable": true,
      "stateMutability": "payable",
      "type": "fallback"
    },
    {
      "anonymous": false,
      "inputs": [
        {
          "indexed": true,
          "name": "previousOwner",
          "type": "address"
        },
        {
          "indexed": true,
          "name": "newOwner",
          "type": "address"
        }
      ],
      "name": "OwnershipTransferred",
      "type": "event"
    },
    {
      "constant": false,
      "inputs": [
        {
          "name": "_employer",
          "type": "uint256"
        },
        {
          "name": "_employee",
          "type": "uint256"
        },
        {
          "name": "_startDate",
          "type": "uint256"
        },
        {
          "name": "_endDate",
          "type": "uint256"
        },
        {
          "name": "_pay",
          "type": "uint32"
        }
      ],
      "name": "setRecord",
      "outputs": [],
      "payable": false,
      "stateMutability": "nonpayable",
      "type": "function"
    },
    {
      "constant": true,
      "inputs": [],
      "name": "getAllRecord",
      "outputs": [
        {
          "name": "",
          "type": "uint32[]"
        },
        {
          "name": "",
          "type": "uint256[]"
        },
        {
          "name": "",
          "type": "uint256[]"
        },
        {
          "name": "",
          "type": "uint256[]"
        },
        {
          "name": "",
          "type": "uint256[]"
        }
      ],
      "payable": false,
      "stateMutability": "view",
      "type": "function"
    },
    {
      "constant": true,
      "inputs": [
        {
          "name": "_employee",
          "type": "uint256"
        }
      ],
      "name": "getEmployeeRecord",
      "outputs": [
        {
          "name": "",
          "type": "uint32[]"
        },
        {
          "name": "",
          "type": "uint256[]"
        },
        {
          "name": "",
          "type": "uint256[]"
        },
        {
          "name": "",
          "type": "uint256[]"
        }
      ],
      "payable": false,
      "stateMutability": "view",
      "type": "function"
    },
    {
      "constant": true,
      "inputs": [
        {
          "name": "_employer",
          "type": "uint256"
        }
      ],
      "name": "getEmployerRecord",
      "outputs": [
        {
          "name": "",
          "type": "uint32[]"
        },
        {
          "name": "",
          "type": "uint256[]"
        },
        {
          "name": "",
          "type": "uint256[]"
        },
        {
          "name": "",
          "type": "uint256[]"
        }
      ],
      "payable": false,
      "stateMutability": "view",
      "type": "function"
    }
  ],
  "bytecode": "0x6080604052600061001d6100c0640100000000026401000000009004565b9050806000806101000a81548173ffffffffffffffffffffffffffffffffffffffff021916908373ffffffffffffffffffffffffffffffffffffffff1602179055508073ffffffffffffffffffffffffffffffffffffffff16600073ffffffffffffffffffffffffffffffffffffffff167f8be0079c531659141344cd1fd0a4f28419497f9722a3daafe3b4186f6b6457e060405160405180910390a3506100c8565b600033905090565b611361806100d76000396000f30060806040526004361061008e576000357c0100000000000000000000000000000000000000000000000000000000900463ffffffff1680636dc955be14610093578063715018a6146100ee5780638287c5f0146101055780638da5cb5b1461025f5780638f32d59b146102b6578063d5a9f003146102e5578063e99bd88f14610471578063f2fde38b146105cb575b600080fd5b34801561009f57600080fd5b506100ec60048036038101908080359060200190929190803590602001909291908035906020019092919080359060200190929190803563ffffffff16906020019092919050505061060e565b005b3480156100fa57600080fd5b50610103610784565b005b34801561011157600080fd5b50610130600480360381019080803590602001909291905050506108bf565b6040518080602001806020018060200180602001858103855289818151815260200191508051906020019060200280838360005b8381101561017f578082015181840152602081019050610164565b50505050905001858103845288818151815260200191508051906020019060200280838360005b838110156101c15780820151818401526020810190506101a6565b50505050905001858103835287818151815260200191508051906020019060200280838360005b838110156102035780820151818401526020810190506101e8565b50505050905001858103825286818151815260200191508051906020019060200280838360005b8381101561024557808201518184015260208101905061022a565b505050509050019850505050505050505060405180910390f35b34801561026b57600080fd5b50610274610b53565b604051808273ffffffffffffffffffffffffffffffffffffffff1673ffffffffffffffffffffffffffffffffffffffff16815260200191505060405180910390f35b3480156102c257600080fd5b506102cb610b7c565b604051808215151515815260200191505060405180910390f35b3480156102f157600080fd5b506102fa610bda565b60405180806020018060200180602001806020018060200186810386528b818151815260200191508051906020019060200280838360005b8381101561034d578082015181840152602081019050610332565b5050505090500186810385528a818151815260200191508051906020019060200280838360005b8381101561038f578082015181840152602081019050610374565b50505050905001868103845289818151815260200191508051906020019060200280838360005b838110156103d15780820151818401526020810190506103b6565b50505050905001868103835288818151815260200191508051906020019060200280838360005b838110156104135780820151818401526020810190506103f8565b50505050905001868103825287818151815260200191508051906020019060200280838360005b8381101561045557808201518184015260208101905061043a565b505050509050019a505050505050505050505060405180910390f35b34801561047d57600080fd5b5061049c60048036038101908080359060200190929190505050610e88565b6040518080602001806020018060200180602001858103855289818151815260200191508051906020019060200280838360005b838110156104eb5780820151818401526020810190506104d0565b50505050905001858103845288818151815260200191508051906020019060200280838360005b8381101561052d578082015181840152602081019050610512565b50505050905001858103835287818151815260200191508051906020019060200280838360005b8381101561056f578082015181840152602081019050610554565b50505050905001858103825286818151815260200191508051906020019060200280838360005b838110156105b1578082015181840152602081019050610596565b505050509050019850505050505050505060405180910390f35b3480156105d757600080fd5b5061060c600480360381019080803573ffffffffffffffffffffffffffffffffffffffff16906020019092919050505061111c565b005b610616610b7c565b151561068a576040517f08c379a00000000000000000000000000000000000000000000000000000000081526004018080602001828103825260208152602001807f4f776e61626c653a2063616c6c6572206973206e6f7420746865206f776e657281525060200191505060405180910390fd5b600360a0604051908101604052808363ffffffff168152602001878152602001868152602001858152602001848152509080600181540180825580915050906001820390600052602060002090600502016000909192909190915060008201518160000160006101000a81548163ffffffff021916908363ffffffff16021790555060208201518160010155604082015181600201556060820151816003015560808201518160040155505050600260008681526020019081526020016000206000815480929190600101919050555060016000858152602001908152602001600020600081548092919060010191905055505050505050565b61078c610b7c565b1515610800576040517f08c379a00000000000000000000000000000000000000000000000000000000081526004018080602001828103825260208152602001807f4f776e61626c653a2063616c6c6572206973206e6f7420746865206f776e657281525060200191505060405180910390fd5b600073ffffffffffffffffffffffffffffffffffffffff166000809054906101000a900473ffffffffffffffffffffffffffffffffffffffff1673ffffffffffffffffffffffffffffffffffffffff167f8be0079c531659141344cd1fd0a4f28419497f9722a3daafe3b4186f6b6457e060405160405180910390a360008060006101000a81548173ffffffffffffffffffffffffffffffffffffffff021916908373ffffffffffffffffffffffffffffffffffffffff160217905550565b6060806060806060806060806000600260008b81526020019081526020016000205460405190808252806020026020018201604052801561090f5781602001602082028038833980820191505090505b509450600260008b8152602001908152602001600020546040519080825280602002602001820160405280156109545781602001602082028038833980820191505090505b509350600260008b8152602001908152602001600020546040519080825280602002602001820160405280156109995781602001602082028038833980820191505090505b509250600260008b8152602001908152602001600020546040519080825280602002602001820160405280156109de5781602001602082028038833980820191505090505b509150600090505b600380549050811015610b3b5789600382815481101515610a0357fe5b9060005260206000209060050201600101541415610b2e57600381815481101515610a2a57fe5b906000526020600020906005020160000160009054906101000a900463ffffffff168582815181101515610a5a57fe5b9060200190602002019063ffffffff16908163ffffffff1681525050600381815481101515610a8557fe5b9060005260206000209060050201600201548482815181101515610aa557fe5b9060200190602002018181525050600381815481101515610ac257fe5b9060005260206000209060050201600301548382815181101515610ae257fe5b9060200190602002018181525050600381815481101515610aff57fe5b9060005260206000209060050201600401548282815181101515610b1f57fe5b90602001906020020181815250505b80806001019150506109e6565b84848484985098509850985050505050509193509193565b60008060009054906101000a900473ffffffffffffffffffffffffffffffffffffffff16905090565b60008060009054906101000a900473ffffffffffffffffffffffffffffffffffffffff1673ffffffffffffffffffffffffffffffffffffffff16610bbe6111a4565b73ffffffffffffffffffffffffffffffffffffffff1614905090565b6060806060806060806060806060806000600380549050604051908082528060200260200182016040528015610c1f5781602001602082028038833980820191505090505b509550600380549050604051908082528060200260200182016040528015610c565781602001602082028038833980820191505090505b509450600380549050604051908082528060200260200182016040528015610c8d5781602001602082028038833980820191505090505b509350600380549050604051908082528060200260200182016040528015610cc45781602001602082028038833980820191505090505b509250600380549050604051908082528060200260200182016040528015610cfb5781602001602082028038833980820191505090505b509150600090505b600380549050811015610e6c57600381815481101515610d1f57fe5b906000526020600020906005020160000160009054906101000a900463ffffffff168682815181101515610d4f57fe5b9060200190602002019063ffffffff16908163ffffffff1681525050600381815481101515610d7a57fe5b9060005260206000209060050201600101548582815181101515610d9a57fe5b9060200190602002018181525050600381815481101515610db757fe5b9060005260206000209060050201600301548482815181101515610dd757fe5b9060200190602002018181525050600381815481101515610df457fe5b9060005260206000209060050201600401548382815181101515610e1457fe5b9060200190602002018181525050600381815481101515610e3157fe5b9060005260206000209060050201600201548282815181101515610e5157fe5b90602001906020020181815250508080600101915050610d03565b85858585859a509a509a509a509a505050505050509091929394565b6060806060806060806060806000600160008b815260200190815260200160002054604051908082528060200260200182016040528015610ed85781602001602082028038833980820191505090505b509450600160008b815260200190815260200160002054604051908082528060200260200182016040528015610f1d5781602001602082028038833980820191505090505b509350600160008b815260200190815260200160002054604051908082528060200260200182016040528015610f625781602001602082028038833980820191505090505b509250600160008b815260200190815260200160002054604051908082528060200260200182016040528015610fa75781602001602082028038833980820191505090505b509150600090505b6003805490508110156111045789600382815481101515610fcc57fe5b90600052602060002090600502016002015414156110f757600381815481101515610ff357fe5b906000526020600020906005020160000160009054906101000a900463ffffffff16858281518110151561102357fe5b9060200190602002019063ffffffff16908163ffffffff168152505060038181548110151561104e57fe5b906000526020600020906005020160010154848281518110151561106e57fe5b906020019060200201818152505060038181548110151561108b57fe5b90600052602060002090600502016003015483828151811015156110ab57fe5b90602001906020020181815250506003818154811015156110c857fe5b90600052602060002090600502016004015482828151811015156110e857fe5b90602001906020020181815250505b8080600101915050610faf565b84848484985098509850985050505050509193509193565b611124610b7c565b1515611198576040517f08c379a00000000000000000000000000000000000000000000000000000000081526004018080602001828103825260208152602001807f4f776e61626c653a2063616c6c6572206973206e6f7420746865206f776e657281525060200191505060405180910390fd5b6111a1816111ac565b50565b600033905090565b600073ffffffffffffffffffffffffffffffffffffffff168173ffffffffffffffffffffffffffffffffffffffff1614151515611277576040517f08c379a00000000000000000000000000000000000000000000000000000000081526004018080602001828103825260268152602001807f4f776e61626c653a206e6577206f776e657220697320746865207a65726f206181526020017f646472657373000000000000000000000000000000000000000000000000000081525060400191505060405180910390fd5b8073ffffffffffffffffffffffffffffffffffffffff166000809054906101000a900473ffffffffffffffffffffffffffffffffffffffff1673ffffffffffffffffffffffffffffffffffffffff167f8be0079c531659141344cd1fd0a4f28419497f9722a3daafe3b4186f6b6457e060405160405180910390a3806000806101000a81548173ffffffffffffffffffffffffffffffffffffffff021916908373ffffffffffffffffffffffffffffffffffffffff160217905550505600a165627a7a72305820fdee0b3177fc3f8f05978a18120a67aa54085acc4c1e6724ad8e614987b7de1b0029",
  "source": "pragma solidity  >=0.4.24 <=0.5.6;\r\n\r\nimport \"./Ownable.sol\";\r\n\r\ncontract AlbaChain is Ownable{\r\n    \r\n    struct Record{\r\n        uint32 pay;\r\n        uint256 employer;\r\n        uint256 employee;\r\n        uint256 startDate;\r\n        uint256 endDate;\r\n    }\r\n    \r\n    mapping (uint256=>uint256) employeeCounter;\r\n    mapping (uint256=>uint256) employerCounter;\r\n    \r\n    Record[] private records;\r\n    \r\n    function setRecord(uint256 _employer, uint256 _employee, uint256 _startDate, uint256 _endDate, uint32 _pay) public onlyOwner{\r\n        records.push(Record(_pay,_employer,_employee,_startDate,_endDate));\r\n        employerCounter[_employer]++;\r\n        employeeCounter[_employee]++;\r\n    }\r\n    \r\n    function getAllRecord() public view returns(uint32[] memory,uint256[] memory, uint256[] memory,uint256[] memory,uint256[] memory){\r\n        uint32[] memory term1 = new uint32[](records.length);\r\n        uint256[] memory term2 = new uint256[](records.length);\r\n        uint256[] memory term3 = new uint256[](records.length);\r\n        uint256[] memory term4 = new uint256[](records.length);\r\n        uint256[] memory term5 = new uint256[](records.length);\r\n        \r\n        for(uint i =0;i<records.length;i++){\r\n                term1[i] = records[i].pay;\r\n                term2[i] = records[i].employer;\r\n                term3[i] = records[i].startDate;\r\n                term4[i] = records[i].endDate;\r\n                term5[i] = records[i].employee;\r\n        }\r\n        return (term1,term2,term3,term4,term5);\r\n    }\r\n    \r\n    function getEmployeeRecord(uint256 _employee) public view returns(uint32[] memory,uint256[] memory, uint256[] memory,uint256[] memory){\r\n        uint32[] memory term1 = new uint32[](employeeCounter[_employee]);\r\n        uint256[] memory term2 = new uint256[](employeeCounter[_employee]);\r\n        uint256[] memory term3 = new uint256[](employeeCounter[_employee]);\r\n        uint256[] memory term4 = new uint256[](employeeCounter[_employee]);\r\n        \r\n        for(uint i =0;i<records.length;i++){\r\n            if(records[i].employee == _employee){\r\n                term1[i] = records[i].pay;\r\n                term2[i] = records[i].employer;\r\n                term3[i] = records[i].startDate;\r\n                term4[i] = records[i].endDate;\r\n            }\r\n        }\r\n        \r\n        return (term1,term2,term3,term4);\r\n    }\r\n    \r\n    function getEmployerRecord(uint256 _employer) public view returns(uint32[] memory, uint256[] memory, uint256[] memory, uint256[] memory){\r\n        uint32[] memory term1 = new uint32[](employerCounter[_employer]);\r\n        uint256[] memory term2 = new uint256[](employerCounter[_employer]);\r\n        uint256[] memory term3 = new uint256[](employerCounter[_employer]);\r\n        uint256[] memory term4 = new uint256[](employerCounter[_employer]);\r\n        \r\n        for(uint i =0;i<records.length;i++){\r\n            if(records[i].employer == _employer){\r\n                term1[i] = records[i].pay;\r\n                term2[i] = records[i].employee;\r\n                term3[i] = records[i].startDate;\r\n                term4[i] = records[i].endDate;\r\n            }\r\n        }\r\n        \r\n        return (term1,term2,term3,term4);\r\n    }\r\n    \r\n    // ---------\r\n// Dont accept ETH;\r\n// ---------\r\n    function () external payable { \r\n        revert();\r\n    }\r\n}\r\n",
  "sourcePath": "C:\\Users\\worud\\Desktop\\ALBACHAIN\\BlockChain\\contracts\\AlbaChain.sol",
  "compiler": {
    "name": "solc",
    "version": "0.4.25+commit.59dbf8f1.Emscripten.clang"
  },
  "schemaVersion": "2.0.2",
  "updatedAt": "2019-11-08T07:34:08.420Z"
}