{
  "contractName": "AlbaChain",
  "abi": [
    {
      "constant": false,
      "inputs": [
        {
          "name": "_employerAdderss",
          "type": "address"
        },
        {
          "name": "_employeeAddress",
          "type": "address"
        },
        {
          "name": "startDate",
          "type": "uint256"
        }
      ],
      "name": "setRecode",
      "outputs": [],
      "payable": false,
      "stateMutability": "nonpayable",
      "type": "function"
    },
    {
      "constant": true,
      "inputs": [
        {
          "name": "_employeeAddress",
          "type": "address"
        }
      ],
      "name": "getEmployeeRecode",
      "outputs": [
        {
          "name": "",
          "type": "address[]"
        },
        {
          "name": "",
          "type": "uint256[]"
        }
      ],
      "payable": false,
      "stateMutability": "view",
      "type": "function"
    },
    {
      "constant": true,
      "inputs": [
        {
          "name": "_employerAddress",
          "type": "address"
        }
      ],
      "name": "getEmployerRecode",
      "outputs": [
        {
          "name": "",
          "type": "address[]"
        },
        {
          "name": "",
          "type": "uint256[]"
        }
      ],
      "payable": false,
      "stateMutability": "view",
      "type": "function"
    }
  ],
  "bytecode": "0x608060405234801561001057600080fd5b50610788806100206000396000f300608060405260043610610057576000357c0100000000000000000000000000000000000000000000000000000000900463ffffffff16806317883c991461005c578063793f83d21461013c57806380c1de21146101a9575b600080fd5b34801561006857600080fd5b5061009d600480360381019080803573ffffffffffffffffffffffffffffffffffffffff169060200190929190505050610289565b604051808060200180602001838103835285818151815260200191508051906020019060200280838360005b838110156100e45780820151818401526020810190506100c9565b50505050905001838103825284818151815260200191508051906020019060200280838360005b8381101561012657808201518184015260208101905061010b565b5050505090500194505050505060405180910390f35b34801561014857600080fd5b506101a7600480360381019080803573ffffffffffffffffffffffffffffffffffffffff169060200190929190803573ffffffffffffffffffffffffffffffffffffffff16906020019092919080359060200190929190505050610468565b005b3480156101b557600080fd5b506101ea600480360381019080803573ffffffffffffffffffffffffffffffffffffffff16906020019092919050505061057d565b604051808060200180602001838103835285818151815260200191508051906020019060200280838360005b83811015610231578082015181840152602081019050610216565b50505050905001838103825284818151815260200191508051906020019060200280838360005b83811015610273578082015181840152602081019050610258565b5050505090500194505050505060405180910390f35b606080606080600080805490506040519080825280602002602001820160405280156102c45781602001602082028038833980820191505090505b5092506000805490506040519080825280602002602001820160405280156102fb5781602001602082028038833980820191505090505b509150600090505b60008054905081101561045a578573ffffffffffffffffffffffffffffffffffffffff1660008281548110151561033657fe5b906000526020600020906003020160000160009054906101000a900473ffffffffffffffffffffffffffffffffffffffff1673ffffffffffffffffffffffffffffffffffffffff16141561044d5760008181548110151561039357fe5b906000526020600020906003020160010160009054906101000a900473ffffffffffffffffffffffffffffffffffffffff1683828151811015156103d357fe5b9060200190602002019073ffffffffffffffffffffffffffffffffffffffff16908173ffffffffffffffffffffffffffffffffffffffff168152505060008181548110151561041e57fe5b906000526020600020906003020160020154828281518110151561043e57fe5b90602001906020020181815250505b8080600101915050610303565b828294509450505050915091565b60006060604051908101604052808573ffffffffffffffffffffffffffffffffffffffff1681526020018473ffffffffffffffffffffffffffffffffffffffff168152602001838152509080600181540180825580915050906001820390600052602060002090600302016000909192909190915060008201518160000160006101000a81548173ffffffffffffffffffffffffffffffffffffffff021916908373ffffffffffffffffffffffffffffffffffffffff16021790555060208201518160010160006101000a81548173ffffffffffffffffffffffffffffffffffffffff021916908373ffffffffffffffffffffffffffffffffffffffff16021790555060408201518160020155505050505050565b606080606080600080805490506040519080825280602002602001820160405280156105b85781602001602082028038833980820191505090505b5092506000805490506040519080825280602002602001820160405280156105ef5781602001602082028038833980820191505090505b509150600090505b60008054905081101561074e578573ffffffffffffffffffffffffffffffffffffffff1660008281548110151561062a57fe5b906000526020600020906003020160010160009054906101000a900473ffffffffffffffffffffffffffffffffffffffff1673ffffffffffffffffffffffffffffffffffffffff1614156107415760008181548110151561068757fe5b906000526020600020906003020160000160009054906101000a900473ffffffffffffffffffffffffffffffffffffffff1683828151811015156106c757fe5b9060200190602002019073ffffffffffffffffffffffffffffffffffffffff16908173ffffffffffffffffffffffffffffffffffffffff168152505060008181548110151561071257fe5b906000526020600020906003020160020154828281518110151561073257fe5b90602001906020020181815250505b80806001019150506105f7565b8282945094505050509150915600a165627a7a72305820dc5d6881c82b226ac2be50f8f8093d41ab8d5580927fa2b9916a39a9b8a10a330029",
  "source": "pragma solidity >=0.4.0 <=0.6.0;\r\n\r\ncontract AlbaChain{\r\n    \r\n    struct Recode{\r\n        address employerAddress;\r\n        address employeeAddress;\r\n        uint256 startDate;\r\n    }\r\n    \r\n    Recode[] private recodes;\r\n    \r\n    function setRecode(address _employerAdderss, address _employeeAddress, uint256 startDate) public {\r\n        recodes.push(Recode(_employerAdderss,_employeeAddress,startDate));\r\n    }\r\n    \r\n    function getEmployeeRecode(address _employeeAddress) public view returns(address[] memory, uint256[] memory){\r\n        address[] memory term1 = new address[](recodes.length);\r\n        uint256[] memory term2 = new uint256[](recodes.length);\r\n        \r\n        for(uint i =0;i<recodes.length;i++){\r\n            if(recodes[i].employeeAddress == _employeeAddress){\r\n                term1[i] = recodes[i].employerAddress;\r\n                term2[i] = recodes[i].startDate;\r\n            }\r\n        }\r\n        \r\n        return (term1,term2);\r\n    }\r\n    \r\n    function getEmployerRecode(address _employerAddress) public view returns(address[] memory, uint256[] memory){\r\n        address[] memory term1 = new address[](recodes.length);\r\n        uint256[] memory term2 = new uint256[](recodes.length);\r\n        \r\n        for(uint i =0;i<recodes.length;i++){\r\n            if(recodes[i].employerAddress == _employerAddress){\r\n                term1[i] = recodes[i].employeeAddress;\r\n                term2[i] = recodes[i].startDate;\r\n            }\r\n        }\r\n        \r\n        return (term1,term2);\r\n    }\r\n}\r\n",
  "sourcePath": "C:\\Users\\worud\\Desktop\\ALBACHAIN\\BlockChain\\contracts\\AlbaChain.sol",
  "compiler": {
    "name": "solc",
    "version": "0.4.25+commit.59dbf8f1.Emscripten.clang"
  },
  "schemaVersion": "2.0.2",
  "updatedAt": "2019-10-15T08:54:29.776Z"
}